:10080000027D023801FA01DD01A9017B0151013F9E
:10081000011C00FD00EF00D500BD00A9009F008E67
:10082000007E0077006A005F005408070807080987
:100830000B0908080708070809080704080708073C
:1008400008090B0908080908070808080807080725
:1008500008090B090808090807050509080708071A
:100860000908070807040908070807070708090710
:100870000C0B0C0C070D0C0D0D0D0C0D0D090E0FB6
:100880000E0D0C0B0C0B0C0C0B0C0B0C0B08080BB3
:10089000090909070809070C0B0C0C070D0C0D0DB5
:1008A0000D0C0C0C090E0F0E0D0C0B0C1010100B78
:1008B0000C1010100B0C0C0C0C0E0F10131212134A
:1008C00012121312120F101013121213121213120B
:1008D000120F100F0E0C0C0E0E0F0E0C0C0E101033
:1008E00011100F100F0E0F101312121312121312F9
:1008F000121010131212131212131212100F0E0CE8
:100900000C100F0E0C0C0E0E0E0E0C100F0E0C0C0D
:10091000100F0F0E0C0C0E0E0E0E0E00D8003C0029
:10092000D8003C0090009C00BA004E004800D8005F
:100930003C00D8003C0048004E0048003C00C0008D
:10094000D8003C00D8003C0090009C00BA004E004B
:100950004800D8004E0090003C00480120012000D3
:10096000D8003C00D8003C0090009C00BA004E002B
:100970004800D8004E0090003C003600D8004E00E1
:1009800048003C004800F0004E0048003C00480091
:10099000B40030004E0048003C004800F000F00079
:1009A000780090009C007800D2005D0069013B0057
:1009B0003C00F00069007801E000F0006900780177
:1009C00068004E007E008D007E007800D200BA00E4
:1009D000D2005D00690069005D0069005D00D20021
:1009E0005D00480090005D004E013801380078003D
:1009F00090009C007800D2005D0069013B003C0043
:100A0000F00069007801E000F000690069013B0036
:100A10004E007E008D007E007800D200BA00D20029
:100A20009F009F013E00BA00D2009F009F013E0040
:100A30005D006901A401A401A400FC011A013E00AB
:100A4000D200BD017A00D200BD017A00D200BD0102
:100A50007A008D009F013E00D200BD017A00D200D5
:100A6000BD017A00D200BD017A008D009F011A00FD
:100A70007E006900D2007E007E008D007E00D200E4
:100A800069017A027C009F00A8009F008D009F01F1
:100A9000A700FC011A013E00D200BD017A00D2007D
:100AA000BD017A00D200BD017A013E013E00D200B4
:100AB000BD017A00D200BD017A00D200BD00BD01A7
:100AC000DD011A007E0069006901DD008D007E00F5
:100AD000D20069017A01F801F801F8006901DD012D
:100AE0001A007E00690069013E008D008D00FC0047
:0D0AF0006900D200FC01F801F801F801F8DE
:0C0BF80002080000020A0000020C0000CD
:100B8900C3E50994F1E50894005060E50925E0FF03
:100B9900E50833FE741B2FF58274093EF583E4934F
:100BA900F50A740193F50B742A2509F58274083541
:100BB90008F583E49325E02400F582E43408F583FD
:100BC900E493F50C740193F50DE50B150BAE0A7062
:100BD90002150A4E600BB295AF0DAE0C120C0580D2
:0F0BE900E80509E509709905088095E4F5A02253
:0B0C0500EF1FAC0670011E4C70F622C1
:03000000020AFDF4
:0C0AFD00787FE4F6D8FD75810D020B44F3
:100B0900020B89E493A3F8E493A34003F68001F26E
:100B190008DFF48029E493A3F85407240CC8C333ED
:100B2900C4540F4420C8834004F456800146F6DFBC
:100B3900E4800B0102040810204080900BF8E47E49
:100B4900019360BCA3FF543F30E509541FFEE493B1
:100B5900A360010ECF54C025E060A840B8E493A378
:100B6900FAE493A3F8E493A3C8C582C8CAC583CAA3
:100B7900F0A3C8C582C8CAC583CADFE9DEE780BE5B
:010C040000EF
:00000001FF
